{
  "contractName": "VotingSystem",
  "abi": [
    {
      "inputs": [
        {
          "internalType": "uint256",
          "name": "",
          "type": "uint256"
        }
      ],
      "name": "adminAddresses",
      "outputs": [
        {
          "internalType": "address",
          "name": "",
          "type": "address"
        }
      ],
      "stateMutability": "view",
      "type": "function"
    },
    {
      "inputs": [],
      "name": "codeOfElection",
      "outputs": [
        {
          "internalType": "uint256",
          "name": "",
          "type": "uint256"
        }
      ],
      "stateMutability": "view",
      "type": "function"
    },
    {
      "inputs": [],
      "name": "codeOfRequest",
      "outputs": [
        {
          "internalType": "uint256",
          "name": "",
          "type": "uint256"
        }
      ],
      "stateMutability": "view",
      "type": "function"
    },
    {
      "inputs": [
        {
          "internalType": "uint256",
          "name": "",
          "type": "uint256"
        }
      ],
      "name": "election",
      "outputs": [
        {
          "internalType": "uint256",
          "name": "",
          "type": "uint256"
        }
      ],
      "stateMutability": "view",
      "type": "function"
    },
    {
      "inputs": [
        {
          "internalType": "uint256",
          "name": "",
          "type": "uint256"
        }
      ],
      "name": "request",
      "outputs": [
        {
          "internalType": "uint256",
          "name": "",
          "type": "uint256"
        }
      ],
      "stateMutability": "view",
      "type": "function"
    },
    {
      "inputs": [
        {
          "internalType": "uint256",
          "name": "",
          "type": "uint256"
        }
      ],
      "name": "userAddresses",
      "outputs": [
        {
          "internalType": "address",
          "name": "",
          "type": "address"
        }
      ],
      "stateMutability": "view",
      "type": "function"
    },
    {
      "inputs": [
        {
          "internalType": "address",
          "name": "_newUserAddress",
          "type": "address"
        },
        {
          "internalType": "string",
          "name": "_name",
          "type": "string"
        },
        {
          "internalType": "string",
          "name": "_email",
          "type": "string"
        },
        {
          "internalType": "string",
          "name": "_password",
          "type": "string"
        }
      ],
      "name": "userSignUp",
      "outputs": [
        {
          "internalType": "bool",
          "name": "isSuccess",
          "type": "bool"
        }
      ],
      "stateMutability": "nonpayable",
      "type": "function"
    },
    {
      "inputs": [
        {
          "internalType": "string",
          "name": "_newPassword",
          "type": "string"
        }
      ],
      "name": "resetUserPassword",
      "outputs": [
        {
          "internalType": "bool",
          "name": "isSuccess",
          "type": "bool"
        }
      ],
      "stateMutability": "nonpayable",
      "type": "function"
    },
    {
      "inputs": [
        {
          "internalType": "address",
          "name": "_newAdminAddress",
          "type": "address"
        },
        {
          "internalType": "string",
          "name": "_name",
          "type": "string"
        },
        {
          "internalType": "string",
          "name": "_email",
          "type": "string"
        },
        {
          "internalType": "string",
          "name": "_password",
          "type": "string"
        }
      ],
      "name": "adminSignUp",
      "outputs": [
        {
          "internalType": "bool",
          "name": "isSuccess",
          "type": "bool"
        }
      ],
      "stateMutability": "nonpayable",
      "type": "function"
    },
    {
      "inputs": [
        {
          "internalType": "string",
          "name": "_newPassword",
          "type": "string"
        }
      ],
      "name": "resetAdminPassword",
      "outputs": [
        {
          "internalType": "bool",
          "name": "isSuccess",
          "type": "bool"
        }
      ],
      "stateMutability": "nonpayable",
      "type": "function"
    },
    {
      "inputs": [
        {
          "internalType": "address",
          "name": "_newVoterAddress",
          "type": "address"
        },
        {
          "internalType": "uint256",
          "name": "_electionID",
          "type": "uint256"
        },
        {
          "internalType": "uint256",
          "name": "_requestID",
          "type": "uint256"
        }
      ],
      "name": "validateVoter",
      "outputs": [
        {
          "internalType": "bool",
          "name": "isSuccess",
          "type": "bool"
        }
      ],
      "stateMutability": "nonpayable",
      "type": "function"
    },
    {
      "inputs": [
        {
          "internalType": "address",
          "name": "_newCandidateAddress",
          "type": "address"
        },
        {
          "internalType": "uint256",
          "name": "_electionID",
          "type": "uint256"
        },
        {
          "internalType": "uint256",
          "name": "_requestID",
          "type": "uint256"
        }
      ],
      "name": "validateCandidate",
      "outputs": [
        {
          "internalType": "bool",
          "name": "isSuccess",
          "type": "bool"
        }
      ],
      "stateMutability": "nonpayable",
      "type": "function"
    },
    {
      "inputs": [
        {
          "internalType": "uint256",
          "name": "_requestID",
          "type": "uint256"
        }
      ],
      "name": "removeRequest",
      "outputs": [
        {
          "internalType": "bool",
          "name": "isSuccess",
          "type": "bool"
        }
      ],
      "stateMutability": "nonpayable",
      "type": "function"
    },
    {
      "inputs": [
        {
          "internalType": "string",
          "name": "_electionName",
          "type": "string"
        },
        {
          "internalType": "string",
          "name": "_deadline",
          "type": "string"
        },
        {
          "internalType": "string",
          "name": "_electionDate",
          "type": "string"
        },
        {
          "internalType": "string",
          "name": "_electionDesc",
          "type": "string"
        }
      ],
      "name": "createElection",
      "outputs": [
        {
          "internalType": "bool",
          "name": "isSuccess",
          "type": "bool"
        }
      ],
      "stateMutability": "nonpayable",
      "type": "function"
    },
    {
      "inputs": [
        {
          "internalType": "uint256",
          "name": "_electionID",
          "type": "uint256"
        }
      ],
      "name": "startElection",
      "outputs": [
        {
          "internalType": "bool",
          "name": "isSuccess",
          "type": "bool"
        }
      ],
      "stateMutability": "nonpayable",
      "type": "function"
    },
    {
      "inputs": [
        {
          "internalType": "uint256",
          "name": "_electionID",
          "type": "uint256"
        }
      ],
      "name": "endElection",
      "outputs": [
        {
          "internalType": "bool",
          "name": "isSuccess",
          "type": "bool"
        }
      ],
      "stateMutability": "nonpayable",
      "type": "function"
    },
    {
      "inputs": [
        {
          "internalType": "uint256",
          "name": "_electionID",
          "type": "uint256"
        },
        {
          "internalType": "string",
          "name": "_electionName",
          "type": "string"
        },
        {
          "internalType": "string",
          "name": "_deadline",
          "type": "string"
        },
        {
          "internalType": "string",
          "name": "_electionDate",
          "type": "string"
        },
        {
          "internalType": "string",
          "name": "_electionDesc",
          "type": "string"
        }
      ],
      "name": "modifyElection",
      "outputs": [
        {
          "internalType": "bool",
          "name": "isSuccess",
          "type": "bool"
        }
      ],
      "stateMutability": "nonpayable",
      "type": "function"
    },
    {
      "inputs": [
        {
          "internalType": "address",
          "name": "_candidateAddress",
          "type": "address"
        },
        {
          "internalType": "uint256",
          "name": "_electionID",
          "type": "uint256"
        }
      ],
      "name": "voteCandidate",
      "outputs": [
        {
          "internalType": "bool",
          "name": "isSuccess",
          "type": "bool"
        }
      ],
      "stateMutability": "nonpayable",
      "type": "function"
    },
    {
      "inputs": [
        {
          "internalType": "uint256",
          "name": "_electionID",
          "type": "uint256"
        }
      ],
      "name": "voterRequest",
      "outputs": [
        {
          "internalType": "bool",
          "name": "isSuccess",
          "type": "bool"
        }
      ],
      "stateMutability": "nonpayable",
      "type": "function"
    },
    {
      "inputs": [
        {
          "internalType": "uint256",
          "name": "_electionID",
          "type": "uint256"
        },
        {
          "internalType": "string",
          "name": "_name",
          "type": "string"
        },
        {
          "internalType": "uint256",
          "name": "_age",
          "type": "uint256"
        },
        {
          "internalType": "string",
          "name": "_description",
          "type": "string"
        }
      ],
      "name": "editProfile",
      "outputs": [
        {
          "internalType": "bool",
          "name": "isSuccess",
          "type": "bool"
        }
      ],
      "stateMutability": "nonpayable",
      "type": "function"
    },
    {
      "inputs": [
        {
          "internalType": "uint256",
          "name": "_electionID",
          "type": "uint256"
        }
      ],
      "name": "candidateRequest",
      "outputs": [
        {
          "internalType": "bool",
          "name": "isSuccess",
          "type": "bool"
        }
      ],
      "stateMutability": "nonpayable",
      "type": "function"
    },
    {
      "inputs": [
        {
          "internalType": "address",
          "name": "_address",
          "type": "address"
        }
      ],
      "name": "userChecker",
      "outputs": [
        {
          "internalType": "bool",
          "name": "isTrue",
          "type": "bool"
        }
      ],
      "stateMutability": "view",
      "type": "function"
    },
    {
      "inputs": [
        {
          "internalType": "address",
          "name": "_address",
          "type": "address"
        },
        {
          "internalType": "string",
          "name": "_password",
          "type": "string"
        }
      ],
      "name": "userPasswordChecker",
      "outputs": [
        {
          "internalType": "bool",
          "name": "isTrue",
          "type": "bool"
        }
      ],
      "stateMutability": "view",
      "type": "function"
    },
    {
      "inputs": [
        {
          "internalType": "address",
          "name": "_address",
          "type": "address"
        },
        {
          "internalType": "string",
          "name": "_email",
          "type": "string"
        }
      ],
      "name": "userEmailChecker",
      "outputs": [
        {
          "internalType": "bool",
          "name": "isTrue",
          "type": "bool"
        }
      ],
      "stateMutability": "view",
      "type": "function"
    },
    {
      "inputs": [
        {
          "internalType": "address",
          "name": "_address",
          "type": "address"
        }
      ],
      "name": "adminChecker",
      "outputs": [
        {
          "internalType": "bool",
          "name": "isTrue",
          "type": "bool"
        }
      ],
      "stateMutability": "view",
      "type": "function"
    },
    {
      "inputs": [
        {
          "internalType": "address",
          "name": "_address",
          "type": "address"
        },
        {
          "internalType": "string",
          "name": "_password",
          "type": "string"
        }
      ],
      "name": "adminPasswordChecker",
      "outputs": [
        {
          "internalType": "bool",
          "name": "isTrue",
          "type": "bool"
        }
      ],
      "stateMutability": "view",
      "type": "function"
    },
    {
      "inputs": [
        {
          "internalType": "address",
          "name": "_address",
          "type": "address"
        },
        {
          "internalType": "string",
          "name": "_email",
          "type": "string"
        }
      ],
      "name": "adminEmailChecker",
      "outputs": [
        {
          "internalType": "bool",
          "name": "isTrue",
          "type": "bool"
        }
      ],
      "stateMutability": "view",
      "type": "function"
    },
    {
      "inputs": [
        {
          "internalType": "uint256",
          "name": "_electionID",
          "type": "uint256"
        }
      ],
      "name": "voterChecker",
      "outputs": [
        {
          "internalType": "bool",
          "name": "isTrue",
          "type": "bool"
        }
      ],
      "stateMutability": "view",
      "type": "function"
    },
    {
      "inputs": [
        {
          "internalType": "uint256",
          "name": "_electionID",
          "type": "uint256"
        }
      ],
      "name": "candidateChecker",
      "outputs": [
        {
          "internalType": "bool",
          "name": "isTrue",
          "type": "bool"
        }
      ],
      "stateMutability": "view",
      "type": "function"
    },
    {
      "inputs": [
        {
          "internalType": "uint256",
          "name": "_electionID",
          "type": "uint256"
        }
      ],
      "name": "electionStartChecker",
      "outputs": [
        {
          "internalType": "bool",
          "name": "isTrue",
          "type": "bool"
        }
      ],
      "stateMutability": "view",
      "type": "function"
    },
    {
      "inputs": [
        {
          "internalType": "uint256",
          "name": "_electionID",
          "type": "uint256"
        }
      ],
      "name": "electionEndChecker",
      "outputs": [
        {
          "internalType": "bool",
          "name": "isTrue",
          "type": "bool"
        }
      ],
      "stateMutability": "view",
      "type": "function"
    },
    {
      "inputs": [],
      "name": "getAllUser",
      "outputs": [
        {
          "internalType": "address[]",
          "name": "usersAddress",
          "type": "address[]"
        },
        {
          "internalType": "string[]",
          "name": "userNames",
          "type": "string[]"
        },
        {
          "internalType": "string[]",
          "name": "userEmails",
          "type": "string[]"
        }
      ],
      "stateMutability": "view",
      "type": "function"
    },
    {
      "inputs": [],
      "name": "getUser",
      "outputs": [
        {
          "internalType": "address",
          "name": "usersAddress",
          "type": "address"
        },
        {
          "internalType": "string",
          "name": "userName",
          "type": "string"
        },
        {
          "internalType": "string",
          "name": "userEmail",
          "type": "string"
        },
        {
          "internalType": "string",
          "name": "userPassword",
          "type": "string"
        }
      ],
      "stateMutability": "view",
      "type": "function"
    },
    {
      "inputs": [],
      "name": "getAllRequest",
      "outputs": [
        {
          "internalType": "uint256[]",
          "name": "requestID",
          "type": "uint256[]"
        },
        {
          "internalType": "address[]",
          "name": "addresses",
          "type": "address[]"
        },
        {
          "internalType": "uint256[]",
          "name": "electionID",
          "type": "uint256[]"
        },
        {
          "internalType": "string[]",
          "name": "role",
          "type": "string[]"
        }
      ],
      "stateMutability": "view",
      "type": "function"
    },
    {
      "inputs": [],
      "name": "getAllElection",
      "outputs": [
        {
          "internalType": "uint256[]",
          "name": "ids",
          "type": "uint256[]"
        },
        {
          "internalType": "string[]",
          "name": "names",
          "type": "string[]"
        },
        {
          "internalType": "string[]",
          "name": "deadline",
          "type": "string[]"
        },
        {
          "internalType": "string[]",
          "name": "date",
          "type": "string[]"
        },
        {
          "internalType": "string[]",
          "name": "desc",
          "type": "string[]"
        },
        {
          "internalType": "string[]",
          "name": "status",
          "type": "string[]"
        }
      ],
      "stateMutability": "view",
      "type": "function"
    },
    {
      "inputs": [
        {
          "internalType": "uint256",
          "name": "_electionID",
          "type": "uint256"
        }
      ],
      "name": "getAllCandidate",
      "outputs": [
        {
          "internalType": "address[]",
          "name": "candidateAddress",
          "type": "address[]"
        },
        {
          "internalType": "string[]",
          "name": "candidateName",
          "type": "string[]"
        },
        {
          "internalType": "uint256[]",
          "name": "candidateAge",
          "type": "uint256[]"
        },
        {
          "internalType": "string[]",
          "name": "candidateDesc",
          "type": "string[]"
        },
        {
          "internalType": "uint256[]",
          "name": "candidateVote",
          "type": "uint256[]"
        }
      ],
      "stateMutability": "view",
      "type": "function"
    }
  ],
  "bytecode": "0x60806040526103e96004556107d160055534801561001c57600080fd5b50615b06806200002d6000396000f3fe608060405234801561001057600080fd5b506004361061021c5760003560e01c8063832880e711610125578063ba44eecf116100ad578063c7917e5c1161007c578063c7917e5c14610792578063c9775903146107c2578063cd391f63146107f2578063d845a4b314610826578063e0ab981d146108565761021c565b8063ba44eecf146106e4578063ba93195b14610714578063bc87221a14610744578063c257314e146107745761021c565b806393cb1bbc116100f457806393cb1bbc146105f45780639c98bcbb14610624578063a5794e2a14610654578063a9e85d6014610684578063aec65cc8146106b45761021c565b8063832880e71461054357806386bc311e1461056457806388274f7b1461059457806393626ed3146105c45761021c565b806347531df8116101a8578063545569ba11610177578063545569ba1461046f5780635597f083146104905780636c24296e146104b35780636d32dc4b146104e357806370e667b0146105135761021c565b806347531df8146103bf57806347e64194146103df5780634e6933c01461040f578063502c9bd51461043f5761021c565b8063316b944a116101ef578063316b944a146102e157806335580a0e146102ff5780633f0569051461032f5780633fde24011461035f57806344786fc31461038f5761021c565b80631d35ccf31461022157806322313fbf146102515780632f567135146102815780632fdc7086146102b1575b600080fd5b61023b60048036038101906102369190614a6a565b610886565b6040516102489190615532565b60405180910390f35b61026b60048036038101906102669190614b6a565b6108f0565b6040516102789190615532565b60405180910390f35b61029b600480360381019061029691906147b3565b610afa565b6040516102a89190615532565b60405180910390f35b6102cb60048036038101906102c69190614a6a565b610b53565b6040516102d89190615532565b60405180910390f35b6102e9610bf7565b6040516102f691906156cd565b60405180910390f35b610319600480360381019061031491906147b3565b610bfd565b6040516103269190615532565b60405180910390f35b61034960048036038101906103449190614a6a565b610c56565b60405161035691906156cd565b60405180910390f35b610379600480360381019061037491906147dc565b610c7a565b6040516103869190615532565b60405180910390f35b6103a960048036038101906103a49190614a6a565b610d25565b6040516103b69190615532565b60405180910390f35b6103c7610f20565b6040516103d693929190615384565b60405180910390f35b6103f960048036038101906103f49190614a6a565b61147e565b6040516104069190615532565b60405180910390f35b61042960048036038101906104249190614966565b6114e8565b6040516104369190615532565b60405180910390f35b61045960048036038101906104549190614a6a565b611598565b604051610466919061530f565b60405180910390f35b6104776115d7565b6040516104879493929190615446565b60405180910390f35b610498611b2d565b6040516104aa969594939291906154a7565b60405180910390f35b6104cd60048036038101906104c891906149a7565b612498565b6040516104da9190615532565b60405180910390f35b6104fd60048036038101906104f89190614a6a565b612719565b60405161050a9190615532565b60405180910390f35b61052d600480360381019061052891906147dc565b61278d565b60405161053a9190615532565b60405180910390f35b61054b612838565b60405161055b949392919061532a565b60405180910390f35b61057e60048036038101906105799190614966565b612ab8565b60405161058b9190615532565b60405180910390f35b6105ae60048036038101906105a99190614a6a565b612b68565b6040516105bb9190615532565b60405180910390f35b6105de60048036038101906105d99190614917565b612cd8565b6040516105eb9190615532565b60405180910390f35b61060e600480360381019061060991906147dc565b612ddb565b60405161061b9190615532565b60405180910390f35b61063e60048036038101906106399190614a6a565b612e86565b60405161064b9190615532565b60405180910390f35b61066e60048036038101906106699190614a6a565b612efa565b60405161067b9190615532565b60405180910390f35b61069e60048036038101906106999190614917565b612f9e565b6040516106ab9190615532565b60405180910390f35b6106ce60048036038101906106c991906147dc565b6130fa565b6040516106db9190615532565b60405180910390f35b6106fe60048036038101906106f99190614a6a565b6131a5565b60405161070b919061530f565b60405180910390f35b61072e600480360381019061072991906148db565b6131e4565b60405161073b9190615532565b60405180910390f35b61075e60048036038101906107599190614830565b6136a4565b60405161076b9190615532565b60405180910390f35b61077c613910565b60405161078991906156cd565b60405180910390f35b6107ac60048036038101906107a79190614830565b613916565b6040516107b99190615532565b60405180910390f35b6107dc60048036038101906107d79190614a6a565b613b82565b6040516107e99190615532565b60405180910390f35b61080c60048036038101906108079190614a6a565b613cf2565b60405161081d9594939291906153d0565b60405180910390f35b610840600480360381019061083b9190614a6a565b614442565b60405161084d91906156cd565b60405180910390f35b610870600480360381019061086b9190614a93565b614466565b60405161087d9190615532565b60405180910390f35b60006009600083815260200190815260200160002060070160003373ffffffffffffffffffffffffffffffffffffffff1673ffffffffffffffffffffffffffffffffffffffff16815260200190815260200160002060009054906101000a900460ff169050919050565b60008060009050600085511161093b576040517f08c379a00000000000000000000000000000000000000000000000000000000081526004016109329061566d565b60405180910390fd5b6000841161097e576040517f08c379a00000000000000000000000000000000000000000000000000000000081526004016109759061564d565b60405180910390fd5b60008351116109c2576040517f08c379a00000000000000000000000000000000000000000000000000000000081526004016109b99061566d565b60405180910390fd5b846009600088815260200190815260200160002060090160003373ffffffffffffffffffffffffffffffffffffffff1673ffffffffffffffffffffffffffffffffffffffff1681526020019081526020016000209080519060200190610a2992919061467e565b508360096000888152602001908152602001600020600a0160003373ffffffffffffffffffffffffffffffffffffffff1673ffffffffffffffffffffffffffffffffffffffff168152602001908152602001600020819055508260096000888152602001908152602001600020600b0160003373ffffffffffffffffffffffffffffffffffffffff1673ffffffffffffffffffffffffffffffffffffffff1681526020019081526020016000209080519060200190610ae992919061467e565b506001905080915050949350505050565b6000600760008373ffffffffffffffffffffffffffffffffffffffff1673ffffffffffffffffffffffffffffffffffffffff16815260200190815260200160002060030160009054906101000a900460ff169050919050565b600080600090505b600280549050811015610bec5760096000848152602001908152602001600020600401604051602001610b8e91906152b3565b60405160208183030381529060405280519060200120604051602001610bb3906152ca565b604051602081830303815290604052805190602001201415610bd9576001915050610bf2565b8080610be4906159b1565b915050610b5b565b50600090505b919050565b60045481565b6000600660008373ffffffffffffffffffffffffffffffffffffffff1673ffffffffffffffffffffffffffffffffffffffff16815260200190815260200160002060030160009054906101000a900460ff169050919050565b60028181548110610c6657600080fd5b906000526020600020016000915090505481565b6000600660008473ffffffffffffffffffffffffffffffffffffffff1673ffffffffffffffffffffffffffffffffffffffff168152602001908152602001600020600201604051602001610cce91906152b3565b6040516020818303038152906040528051906020012082604051602001610cf5919061529c565b604051602081830303815290604052805190602001201415610d1a5760019050610d1f565b600090505b92915050565b600080600090506000805b600380549050811015610df45784604051602001610d4e91906152f4565b6040516020818303038152906040528051906020012060038281548110610d9e577f4e487b7100000000000000000000000000000000000000000000000000000000600052603260045260246000fd5b9060005260206000200154604051602001610db991906152f4565b604051602081830303815290604052805190602001201415610de15780915060019250610df4565b8080610dec906159b1565b915050610d30565b508115610f165760008190505b6001600380549050610e139190615897565b811015610ec6576003600182610e299190615841565b81548110610e60577f4e487b7100000000000000000000000000000000000000000000000000000000600052603260045260246000fd5b906000526020600020015460038281548110610ea5577f4e487b7100000000000000000000000000000000000000000000000000000000600052603260045260246000fd5b90600052602060002001819055508080610ebe906159b1565b915050610e01565b506003805480610eff577f4e487b7100000000000000000000000000000000000000000000000000000000600052603160045260246000fd5b600190038181906000526020600020016000905590555b8192505050919050565b606080606060008080549050905060008167ffffffffffffffff811115610f70577f4e487b7100000000000000000000000000000000000000000000000000000000600052604160045260246000fd5b604051908082528060200260200182016040528015610f9e5781602001602082028036833780820191505090505b50905060008267ffffffffffffffff811115610fe3577f4e487b7100000000000000000000000000000000000000000000000000000000600052604160045260246000fd5b60405190808252806020026020018201604052801561101657816020015b60608152602001906001900390816110015790505b50905060008367ffffffffffffffff81111561105b577f4e487b7100000000000000000000000000000000000000000000000000000000600052604160045260246000fd5b60405190808252806020026020018201604052801561108e57816020015b60608152602001906001900390816110795790505b50905060005b8481101561146b57600081815481106110d6577f4e487b7100000000000000000000000000000000000000000000000000000000600052603260045260246000fd5b9060005260206000200160009054906101000a900473ffffffffffffffffffffffffffffffffffffffff1684828151811061113a577f4e487b7100000000000000000000000000000000000000000000000000000000600052603260045260246000fd5b602002602001019073ffffffffffffffffffffffffffffffffffffffff16908173ffffffffffffffffffffffffffffffffffffffff1681525050600660008083815481106111b1577f4e487b7100000000000000000000000000000000000000000000000000000000600052603260045260246000fd5b9060005260206000200160009054906101000a900473ffffffffffffffffffffffffffffffffffffffff1673ffffffffffffffffffffffffffffffffffffffff1673ffffffffffffffffffffffffffffffffffffffff16815260200190815260200160002060000180546112249061597f565b80601f01602080910402602001604051908101604052809291908181526020018280546112509061597f565b801561129d5780601f106112725761010080835404028352916020019161129d565b820191906000526020600020905b81548152906001019060200180831161128057829003601f168201915b50505050508382815181106112db577f4e487b7100000000000000000000000000000000000000000000000000000000600052603260045260246000fd5b602002602001018190525060066000808381548110611323577f4e487b7100000000000000000000000000000000000000000000000000000000600052603260045260246000fd5b9060005260206000200160009054906101000a900473ffffffffffffffffffffffffffffffffffffffff1673ffffffffffffffffffffffffffffffffffffffff1673ffffffffffffffffffffffffffffffffffffffff16815260200190815260200160002060010180546113969061597f565b80601f01602080910402602001604051908101604052809291908181526020018280546113c29061597f565b801561140f5780601f106113e45761010080835404028352916020019161140f565b820191906000526020600020905b8154815290600101906020018083116113f257829003601f168201915b505050505082828151811061144d577f4e487b7100000000000000000000000000000000000000000000000000000000600052603260045260246000fd5b60200260200101819052508080611463906159b1565b915050611094565b5082828296509650965050505050909192565b600060096000838152602001908152602001600020600d0160003373ffffffffffffffffffffffffffffffffffffffff1673ffffffffffffffffffffffffffffffffffffffff16815260200190815260200160002060009054906101000a900460ff169050919050565b60008060009050600083511415611534576040517f08c379a000000000000000000000000000000000000000000000000000000000815260040161152b906156ad565b60405180910390fd5b82600660003373ffffffffffffffffffffffffffffffffffffffff1673ffffffffffffffffffffffffffffffffffffffff168152602001908152602001600020600201908051906020019061158a92919061467e565b506001905080915050919050565b600081815481106115a857600080fd5b906000526020600020016000915054906101000a900473ffffffffffffffffffffffffffffffffffffffff1681565b6060806060806000600380549050905060008167ffffffffffffffff811115611629577f4e487b7100000000000000000000000000000000000000000000000000000000600052604160045260246000fd5b6040519080825280602002602001820160405280156116575781602001602082028036833780820191505090505b50905060008267ffffffffffffffff81111561169c577f4e487b7100000000000000000000000000000000000000000000000000000000600052604160045260246000fd5b6040519080825280602002602001820160405280156116ca5781602001602082028036833780820191505090505b50905060008367ffffffffffffffff81111561170f577f4e487b7100000000000000000000000000000000000000000000000000000000600052604160045260246000fd5b60405190808252806020026020018201604052801561173d5781602001602082028036833780820191505090505b50905060008467ffffffffffffffff811115611782577f4e487b7100000000000000000000000000000000000000000000000000000000600052604160045260246000fd5b6040519080825280602002602001820160405280156117b557816020015b60608152602001906001900390816117a05790505b50905060005b85811015611b1557600381815481106117fd577f4e487b7100000000000000000000000000000000000000000000000000000000600052603260045260246000fd5b9060005260206000200154858281518110611841577f4e487b7100000000000000000000000000000000000000000000000000000000600052603260045260246000fd5b602002602001018181525050600860006003838154811061188b577f4e487b7100000000000000000000000000000000000000000000000000000000600052603260045260246000fd5b9060005260206000200154815260200190815260200160002060000160009054906101000a900473ffffffffffffffffffffffffffffffffffffffff16848281518110611901577f4e487b7100000000000000000000000000000000000000000000000000000000600052603260045260246000fd5b602002602001019073ffffffffffffffffffffffffffffffffffffffff16908173ffffffffffffffffffffffffffffffffffffffff16815250506008600060038381548110611979577f4e487b7100000000000000000000000000000000000000000000000000000000600052603260045260246000fd5b90600052602060002001548152602001908152602001600020600201548382815181106119cf577f4e487b7100000000000000000000000000000000000000000000000000000000600052603260045260246000fd5b6020026020010181815250506008600060038381548110611a19577f4e487b7100000000000000000000000000000000000000000000000000000000600052603260045260246000fd5b906000526020600020015481526020019081526020016000206003018054611a409061597f565b80601f0160208091040260200160405190810160405280929190818152602001828054611a6c9061597f565b8015611ab95780601f10611a8e57610100808354040283529160200191611ab9565b820191906000526020600020905b815481529060010190602001808311611a9c57829003601f168201915b5050505050828281518110611af7577f4e487b7100000000000000000000000000000000000000000000000000000000600052603260045260246000fd5b60200260200101819052508080611b0d906159b1565b9150506117bb565b50838383839850985098509850505050505090919293565b6060806060806060806000600280549050905060008167ffffffffffffffff811115611b82577f4e487b7100000000000000000000000000000000000000000000000000000000600052604160045260246000fd5b604051908082528060200260200182016040528015611bb05781602001602082028036833780820191505090505b50905060008267ffffffffffffffff811115611bf5577f4e487b7100000000000000000000000000000000000000000000000000000000600052604160045260246000fd5b604051908082528060200260200182016040528015611c2857816020015b6060815260200190600190039081611c135790505b50905060008367ffffffffffffffff811115611c6d577f4e487b7100000000000000000000000000000000000000000000000000000000600052604160045260246000fd5b604051908082528060200260200182016040528015611ca057816020015b6060815260200190600190039081611c8b5790505b50905060008467ffffffffffffffff811115611ce5577f4e487b7100000000000000000000000000000000000000000000000000000000600052604160045260246000fd5b604051908082528060200260200182016040528015611d1857816020015b6060815260200190600190039081611d035790505b50905060008567ffffffffffffffff811115611d5d577f4e487b7100000000000000000000000000000000000000000000000000000000600052604160045260246000fd5b604051908082528060200260200182016040528015611d9057816020015b6060815260200190600190039081611d7b5790505b50905060008667ffffffffffffffff811115611dd5577f4e487b7100000000000000000000000000000000000000000000000000000000600052604160045260246000fd5b604051908082528060200260200182016040528015611e0857816020015b6060815260200190600190039081611df35790505b50905060005b878110156124765760028181548110611e50577f4e487b7100000000000000000000000000000000000000000000000000000000600052603260045260246000fd5b9060005260206000200154878281518110611e94577f4e487b7100000000000000000000000000000000000000000000000000000000600052603260045260246000fd5b6020026020010181815250506009600060028381548110611ede577f4e487b7100000000000000000000000000000000000000000000000000000000600052603260045260246000fd5b906000526020600020015481526020019081526020016000206000018054611f059061597f565b80601f0160208091040260200160405190810160405280929190818152602001828054611f319061597f565b8015611f7e5780601f10611f5357610100808354040283529160200191611f7e565b820191906000526020600020905b815481529060010190602001808311611f6157829003601f168201915b5050505050868281518110611fbc577f4e487b7100000000000000000000000000000000000000000000000000000000600052603260045260246000fd5b60200260200101819052506009600060028381548110612005577f4e487b7100000000000000000000000000000000000000000000000000000000600052603260045260246000fd5b90600052602060002001548152602001908152602001600020600101805461202c9061597f565b80601f01602080910402602001604051908101604052809291908181526020018280546120589061597f565b80156120a55780601f1061207a576101008083540402835291602001916120a5565b820191906000526020600020905b81548152906001019060200180831161208857829003601f168201915b50505050508582815181106120e3577f4e487b7100000000000000000000000000000000000000000000000000000000600052603260045260246000fd5b6020026020010181905250600960006002838154811061212c577f4e487b7100000000000000000000000000000000000000000000000000000000600052603260045260246000fd5b9060005260206000200154815260200190815260200160002060020180546121539061597f565b80601f016020809104026020016040519081016040528092919081815260200182805461217f9061597f565b80156121cc5780601f106121a1576101008083540402835291602001916121cc565b820191906000526020600020905b8154815290600101906020018083116121af57829003601f168201915b505050505084828151811061220a577f4e487b7100000000000000000000000000000000000000000000000000000000600052603260045260246000fd5b60200260200101819052506009600060028381548110612253577f4e487b7100000000000000000000000000000000000000000000000000000000600052603260045260246000fd5b90600052602060002001548152602001908152602001600020600301805461227a9061597f565b80601f01602080910402602001604051908101604052809291908181526020018280546122a69061597f565b80156122f35780601f106122c8576101008083540402835291602001916122f3565b820191906000526020600020905b8154815290600101906020018083116122d657829003601f168201915b5050505050838281518110612331577f4e487b7100000000000000000000000000000000000000000000000000000000600052603260045260246000fd5b6020026020010181905250600960006002838154811061237a577f4e487b7100000000000000000000000000000000000000000000000000000000600052603260045260246000fd5b9060005260206000200154815260200190815260200160002060040180546123a19061597f565b80601f01602080910402602001604051908101604052809291908181526020018280546123cd9061597f565b801561241a5780601f106123ef5761010080835404028352916020019161241a565b820191906000526020600020905b8154815290600101906020018083116123fd57829003601f168201915b5050505050828281518110612458577f4e487b7100000000000000000000000000000000000000000000000000000000600052603260045260246000fd5b6020026020010181905250808061246e906159b1565b915050611e0e565b508585858585859c509c509c509c509c509c5050505050505050909192939495565b6000806000905060008651116124e3576040517f08c379a00000000000000000000000000000000000000000000000000000000081526004016124da906155ad565b60405180910390fd5b6000855111612527576040517f08c379a000000000000000000000000000000000000000000000000000000000815260040161251e9061562d565b60405180910390fd5b600084511161256b576040517f08c379a0000000000000000000000000000000000000000000000000000000008152600401612562906155ed565b60405180910390fd5b6000835114156125b0576040517f08c379a00000000000000000000000000000000000000000000000000000000081526004016125a79061560d565b60405180910390fd5b8560096000600454815260200190815260200160002060000190805190602001906125dc92919061467e565b5084600960006004548152602001908152602001600020600101908051906020019061260992919061467e565b5083600960006004548152602001908152602001600020600201908051906020019061263692919061467e565b5082600960006004548152602001908152602001600020600301908051906020019061266392919061467e565b506040518060400160405280600781526020017f57616974696e670000000000000000000000000000000000000000000000000081525060096000600454815260200190815260200160002060040190805190602001906126c592919061467e565b506002600454908060018154018082558091505060019003906000526020600020016000909190919091505560046000815480929190612704906159b1565b91905055506001905080915050949350505050565b600080600090506040518060400160405280600781526020017f537461727465640000000000000000000000000000000000000000000000000081525060096000858152602001908152602001600020600401908051906020019061277f92919061467e565b506001905080915050919050565b6000600760008473ffffffffffffffffffffffffffffffffffffffff1673ffffffffffffffffffffffffffffffffffffffff1681526020019081526020016000206001016040516020016127e191906152b3565b6040516020818303038152906040528051906020012082604051602001612808919061529c565b60405160208183030381529060405280519060200120141561282d5760019050612832565b600090505b92915050565b6000606080606033600660003373ffffffffffffffffffffffffffffffffffffffff1673ffffffffffffffffffffffffffffffffffffffff168152602001908152602001600020600001600660003373ffffffffffffffffffffffffffffffffffffffff1673ffffffffffffffffffffffffffffffffffffffff168152602001908152602001600020600101600660003373ffffffffffffffffffffffffffffffffffffffff1673ffffffffffffffffffffffffffffffffffffffff1681526020019081526020016000206002018280546129129061597f565b80601f016020809104026020016040519081016040528092919081815260200182805461293e9061597f565b801561298b5780601f106129605761010080835404028352916020019161298b565b820191906000526020600020905b81548152906001019060200180831161296e57829003601f168201915b5050505050925081805461299e9061597f565b80601f01602080910402602001604051908101604052809291908181526020018280546129ca9061597f565b8015612a175780601f106129ec57610100808354040283529160200191612a17565b820191906000526020600020905b8154815290600101906020018083116129fa57829003601f168201915b50505050509150808054612a2a9061597f565b80601f0160208091040260200160405190810160405280929190818152602001828054612a569061597f565b8015612aa35780601f10612a7857610100808354040283529160200191612aa3565b820191906000526020600020905b815481529060010190602001808311612a8657829003601f168201915b50505050509050935093509350935090919293565b60008060009050600083511415612b04576040517f08c379a0000000000000000000000000000000000000000000000000000000008152600401612afb906156ad565b60405180910390fd5b82600760003373ffffffffffffffffffffffffffffffffffffffff1673ffffffffffffffffffffffffffffffffffffffff1681526020019081526020016000206002019080519060200190612b5a92919061467e565b506001905080915050919050565b6000806000905060008311612bb2576040517f08c379a0000000000000000000000000000000000000000000000000000000008152600401612ba99061558d565b60405180910390fd5b600360055490806001815401808255809150506001900390600052602060002001600090919091909150553360086000600554815260200190815260200160002060000160006101000a81548173ffffffffffffffffffffffffffffffffffffffff021916908373ffffffffffffffffffffffffffffffffffffffff16021790555082600860006005548152602001908152602001600020600201819055506040518060400160405280600981526020017f43616e64696461746500000000000000000000000000000000000000000000008152506008600060055481526020019081526020016000206003019080519060200190612cb292919061467e565b5060056000815480929190612cc6906159b1565b91905055506001905080915050919050565b6000806000905060096000858152602001908152602001600020600501859080600181540180825580915050600190039060005260206000200160009091909190916101000a81548173ffffffffffffffffffffffffffffffffffffffff021916908373ffffffffffffffffffffffffffffffffffffffff16021790555060016009600086815260200190815260200160002060070160008773ffffffffffffffffffffffffffffffffffffffff1673ffffffffffffffffffffffffffffffffffffffff16815260200190815260200160002060006101000a81548160ff021916908315150217905550612dcb83610d25565b5060019050809150509392505050565b6000600660008473ffffffffffffffffffffffffffffffffffffffff1673ffffffffffffffffffffffffffffffffffffffff168152602001908152602001600020600101604051602001612e2f91906152b3565b6040516020818303038152906040528051906020012082604051602001612e56919061529c565b604051602081830303815290604052805190602001201415612e7b5760019050612e80565b600090505b92915050565b600080600090506040518060400160405280600581526020017f456e646564000000000000000000000000000000000000000000000000000000815250600960008581526020019081526020016000206004019080519060200190612eec92919061467e565b506001905080915050919050565b600080600090505b600280549050811015612f935760096000848152602001908152602001600020600401604051602001612f3591906152b3565b60405160208183030381529060405280519060200120604051602001612f5a906152df565b604051602081830303815290604052805190602001201415612f80576001915050612f99565b8080612f8b906159b1565b915050612f02565b50600090505b919050565b6000806000905060096000858152602001908152602001600020600801859080600181540180825580915050600190039060005260206000200160009091909190916101000a81548173ffffffffffffffffffffffffffffffffffffffff021916908373ffffffffffffffffffffffffffffffffffffffff160217905550600060096000868152602001908152602001600020600c0160008773ffffffffffffffffffffffffffffffffffffffff1673ffffffffffffffffffffffffffffffffffffffff16815260200190815260200160002081905550600160096000868152602001908152602001600020600d0160008773ffffffffffffffffffffffffffffffffffffffff1673ffffffffffffffffffffffffffffffffffffffff16815260200190815260200160002060006101000a81548160ff0219169083151502179055506130ea83610d25565b5060019050809150509392505050565b6000600760008473ffffffffffffffffffffffffffffffffffffffff1673ffffffffffffffffffffffffffffffffffffffff16815260200190815260200160002060020160405160200161314e91906152b3565b6040516020818303038152906040528051906020012082604051602001613175919061529c565b60405160208183030381529060405280519060200120141561319a576001905061319f565b600090505b92915050565b600181815481106131b557600080fd5b906000526020600020016000915054906101000a900473ffffffffffffffffffffffffffffffffffffffff1681565b60008060009050600073ffffffffffffffffffffffffffffffffffffffff168473ffffffffffffffffffffffffffffffffffffffff16141561325b576040517f08c379a0000000000000000000000000000000000000000000000000000000008152600401613252906155cd565b60405180910390fd5b6000831161329e576040517f08c379a00000000000000000000000000000000000000000000000000000000081526004016132959061558d565b60405180910390fd5b60006009600085815260200190815260200160002060060160003373ffffffffffffffffffffffffffffffffffffffff1673ffffffffffffffffffffffffffffffffffffffff16815260200190815260200160002060009054906101000a900473ffffffffffffffffffffffffffffffffffffffff1690508473ffffffffffffffffffffffffffffffffffffffff168173ffffffffffffffffffffffffffffffffffffffff161415613385576040517f08c379a000000000000000000000000000000000000000000000000000000000815260040161337c9061554d565b60405180910390fd5b600073ffffffffffffffffffffffffffffffffffffffff166009600086815260200190815260200160002060060160003373ffffffffffffffffffffffffffffffffffffffff1673ffffffffffffffffffffffffffffffffffffffff16815260200190815260200160002060009054906101000a900473ffffffffffffffffffffffffffffffffffffffff1673ffffffffffffffffffffffffffffffffffffffff16146135995760096000858152602001908152602001600020600c0160008273ffffffffffffffffffffffffffffffffffffffff1673ffffffffffffffffffffffffffffffffffffffff168152602001908152602001600020600081548092919061349090615955565b919050555060096000858152602001908152602001600020600c0160008673ffffffffffffffffffffffffffffffffffffffff1673ffffffffffffffffffffffffffffffffffffffff16815260200190815260200160002060008154809291906134f9906159b1565b9190505550846009600086815260200190815260200160002060060160003373ffffffffffffffffffffffffffffffffffffffff1673ffffffffffffffffffffffffffffffffffffffff16815260200190815260200160002060006101000a81548173ffffffffffffffffffffffffffffffffffffffff021916908373ffffffffffffffffffffffffffffffffffffffff16021790555060019150613699565b60096000858152602001908152602001600020600c0160008673ffffffffffffffffffffffffffffffffffffffff1673ffffffffffffffffffffffffffffffffffffffff16815260200190815260200160002060008154809291906135fd906159b1565b9190505550846009600086815260200190815260200160002060060160003373ffffffffffffffffffffffffffffffffffffffff1673ffffffffffffffffffffffffffffffffffffffff16815260200190815260200160002060006101000a81548173ffffffffffffffffffffffffffffffffffffffff021916908373ffffffffffffffffffffffffffffffffffffffff160217905550600191505b819250505092915050565b6000801515600760008773ffffffffffffffffffffffffffffffffffffffff1673ffffffffffffffffffffffffffffffffffffffff16815260200190815260200160002060030160009054906101000a900460ff1615151461373b576040517f08c379a00000000000000000000000000000000000000000000000000000000081526004016137329061556d565b60405180910390fd5b600084600760008873ffffffffffffffffffffffffffffffffffffffff1673ffffffffffffffffffffffffffffffffffffffff168152602001908152602001600020600001908051906020019061379392919061467e565b5083600760008873ffffffffffffffffffffffffffffffffffffffff1673ffffffffffffffffffffffffffffffffffffffff16815260200190815260200160002060010190805190602001906137ea92919061467e565b5082600760008873ffffffffffffffffffffffffffffffffffffffff1673ffffffffffffffffffffffffffffffffffffffff168152602001908152602001600020600201908051906020019061384192919061467e565b506001600760008873ffffffffffffffffffffffffffffffffffffffff1673ffffffffffffffffffffffffffffffffffffffff16815260200190815260200160002060030160006101000a81548160ff0219169083151502179055506001869080600181540180825580915050600190039060005260206000200160009091909190916101000a81548173ffffffffffffffffffffffffffffffffffffffff021916908373ffffffffffffffffffffffffffffffffffffffff1602179055506001905080915050949350505050565b60055481565b6000801515600660008773ffffffffffffffffffffffffffffffffffffffff1673ffffffffffffffffffffffffffffffffffffffff16815260200190815260200160002060030160009054906101000a900460ff161515146139ad576040517f08c379a00000000000000000000000000000000000000000000000000000000081526004016139a49061568d565b60405180910390fd5b600084600660008873ffffffffffffffffffffffffffffffffffffffff1673ffffffffffffffffffffffffffffffffffffffff1681526020019081526020016000206000019080519060200190613a0592919061467e565b5083600660008873ffffffffffffffffffffffffffffffffffffffff1673ffffffffffffffffffffffffffffffffffffffff1681526020019081526020016000206001019080519060200190613a5c92919061467e565b5082600660008873ffffffffffffffffffffffffffffffffffffffff1673ffffffffffffffffffffffffffffffffffffffff1681526020019081526020016000206002019080519060200190613ab392919061467e565b506001600660008873ffffffffffffffffffffffffffffffffffffffff1673ffffffffffffffffffffffffffffffffffffffff16815260200190815260200160002060030160006101000a81548160ff0219169083151502179055506000869080600181540180825580915050600190039060005260206000200160009091909190916101000a81548173ffffffffffffffffffffffffffffffffffffffff021916908373ffffffffffffffffffffffffffffffffffffffff1602179055506001905080915050949350505050565b6000806000905060008311613bcc576040517f08c379a0000000000000000000000000000000000000000000000000000000008152600401613bc39061558d565b60405180910390fd5b600360055490806001815401808255809150506001900390600052602060002001600090919091909150553360086000600554815260200190815260200160002060000160006101000a81548173ffffffffffffffffffffffffffffffffffffffff021916908373ffffffffffffffffffffffffffffffffffffffff16021790555082600860006005548152602001908152602001600020600201819055506040518060400160405280600581526020017f566f7465720000000000000000000000000000000000000000000000000000008152506008600060055481526020019081526020016000206003019080519060200190613ccc92919061467e565b5060056000815480929190613ce0906159b1565b91905055506001905080915050919050565b606080606080606060006009600088815260200190815260200160002060080180549050905060008790506000600960008a8152602001908152602001600020600801805480602002602001604051908101604052809291908181526020018280548015613db557602002820191906000526020600020905b8160009054906101000a900473ffffffffffffffffffffffffffffffffffffffff1673ffffffffffffffffffffffffffffffffffffffff1681526020019060010190808311613d6b575b5050505050905060008367ffffffffffffffff811115613dfe577f4e487b7100000000000000000000000000000000000000000000000000000000600052604160045260246000fd5b604051908082528060200260200182016040528015613e3157816020015b6060815260200190600190039081613e1c5790505b50905060008467ffffffffffffffff811115613e76577f4e487b7100000000000000000000000000000000000000000000000000000000600052604160045260246000fd5b604051908082528060200260200182016040528015613ea45781602001602082028036833780820191505090505b50905060008567ffffffffffffffff811115613ee9577f4e487b7100000000000000000000000000000000000000000000000000000000600052604160045260246000fd5b604051908082528060200260200182016040528015613f1c57816020015b6060815260200190600190039081613f075790505b50905060008667ffffffffffffffff811115613f61577f4e487b7100000000000000000000000000000000000000000000000000000000600052604160045260246000fd5b604051908082528060200260200182016040528015613f8f5781602001602082028036833780820191505090505b50905060005b8781101561442257600960008881526020019081526020016000206009016000878381518110613fee577f4e487b7100000000000000000000000000000000000000000000000000000000600052603260045260246000fd5b602002602001015173ffffffffffffffffffffffffffffffffffffffff1673ffffffffffffffffffffffffffffffffffffffff168152602001908152602001600020805461403b9061597f565b80601f01602080910402602001604051908101604052809291908181526020018280546140679061597f565b80156140b45780601f10614089576101008083540402835291602001916140b4565b820191906000526020600020905b81548152906001019060200180831161409757829003601f168201915b50505050508582815181106140f2577f4e487b7100000000000000000000000000000000000000000000000000000000600052603260045260246000fd5b602002602001018190525060096000888152602001908152602001600020600a01600087838151811061414e577f4e487b7100000000000000000000000000000000000000000000000000000000600052603260045260246000fd5b602002602001015173ffffffffffffffffffffffffffffffffffffffff1673ffffffffffffffffffffffffffffffffffffffff168152602001908152602001600020548482815181106141ca577f4e487b7100000000000000000000000000000000000000000000000000000000600052603260045260246000fd5b60200260200101818152505060096000888152602001908152602001600020600b016000878381518110614227577f4e487b7100000000000000000000000000000000000000000000000000000000600052603260045260246000fd5b602002602001015173ffffffffffffffffffffffffffffffffffffffff1673ffffffffffffffffffffffffffffffffffffffff16815260200190815260200160002080546142749061597f565b80601f01602080910402602001604051908101604052809291908181526020018280546142a09061597f565b80156142ed5780601f106142c2576101008083540402835291602001916142ed565b820191906000526020600020905b8154815290600101906020018083116142d057829003601f168201915b505050505083828151811061432b577f4e487b7100000000000000000000000000000000000000000000000000000000600052603260045260246000fd5b602002602001018190525060096000888152602001908152602001600020600c016000878381518110614387577f4e487b7100000000000000000000000000000000000000000000000000000000600052603260045260246000fd5b602002602001015173ffffffffffffffffffffffffffffffffffffffff1673ffffffffffffffffffffffffffffffffffffffff16815260200190815260200160002054828281518110614403577f4e487b7100000000000000000000000000000000000000000000000000000000600052603260045260246000fd5b602002602001018181525050808061441a906159b1565b915050613f95565b5084848484849b509b509b509b509b505050505050505091939590929450565b6003818154811061445257600080fd5b906000526020600020016000915090505481565b60008060009050600087116144b0576040517f08c379a00000000000000000000000000000000000000000000000000000000081526004016144a79061558d565b60405180910390fd5b60008651116144f4576040517f08c379a00000000000000000000000000000000000000000000000000000000081526004016144eb906155ad565b60405180910390fd5b6000855111614538576040517f08c379a000000000000000000000000000000000000000000000000000000000815260040161452f9061562d565b60405180910390fd5b600084511161457c576040517f08c379a0000000000000000000000000000000000000000000000000000000008152600401614573906155ed565b60405180910390fd5b6000835114156145c1576040517f08c379a00000000000000000000000000000000000000000000000000000000081526004016145b89061560d565b60405180910390fd5b856009600089815260200190815260200160002060000190805190602001906145eb92919061467e565b508460096000898152602001908152602001600020600101908051906020019061461692919061467e565b508360096000898152602001908152602001600020600201908051906020019061464192919061467e565b508260096000898152602001908152602001600020600301908051906020019061466c92919061467e565b50600190508091505095945050505050565b82805461468a9061597f565b90600052602060002090601f0160209004810192826146ac57600085556146f3565b82601f106146c557805160ff19168380011785556146f3565b828001600101855582156146f3579182015b828111156146f25782518255916020019190600101906146d7565b5b5090506147009190614704565b5090565b5b8082111561471d576000816000905550600101614705565b5090565b600061473461472f84615719565b6156e8565b90508281526020810184848401111561474c57600080fd5b614757848285615913565b509392505050565b60008135905061476e81615aa2565b92915050565b600082601f83011261478557600080fd5b8135614795848260208601614721565b91505092915050565b6000813590506147ad81615ab9565b92915050565b6000602082840312156147c557600080fd5b60006147d38482850161475f565b91505092915050565b600080604083850312156147ef57600080fd5b60006147fd8582860161475f565b925050602083013567ffffffffffffffff81111561481a57600080fd5b61482685828601614774565b9150509250929050565b6000806000806080858703121561484657600080fd5b60006148548782880161475f565b945050602085013567ffffffffffffffff81111561487157600080fd5b61487d87828801614774565b935050604085013567ffffffffffffffff81111561489a57600080fd5b6148a687828801614774565b925050606085013567ffffffffffffffff8111156148c357600080fd5b6148cf87828801614774565b91505092959194509250565b600080604083850312156148ee57600080fd5b60006148fc8582860161475f565b925050602061490d8582860161479e565b9150509250929050565b60008060006060848603121561492c57600080fd5b600061493a8682870161475f565b935050602061494b8682870161479e565b925050604061495c8682870161479e565b9150509250925092565b60006020828403121561497857600080fd5b600082013567ffffffffffffffff81111561499257600080fd5b61499e84828501614774565b91505092915050565b600080600080608085870312156149bd57600080fd5b600085013567ffffffffffffffff8111156149d757600080fd5b6149e387828801614774565b945050602085013567ffffffffffffffff811115614a0057600080fd5b614a0c87828801614774565b935050604085013567ffffffffffffffff811115614a2957600080fd5b614a3587828801614774565b925050606085013567ffffffffffffffff811115614a5257600080fd5b614a5e87828801614774565b91505092959194509250565b600060208284031215614a7c57600080fd5b6000614a8a8482850161479e565b91505092915050565b600080600080600060a08688031215614aab57600080fd5b6000614ab98882890161479e565b955050602086013567ffffffffffffffff811115614ad657600080fd5b614ae288828901614774565b945050604086013567ffffffffffffffff811115614aff57600080fd5b614b0b88828901614774565b935050606086013567ffffffffffffffff811115614b2857600080fd5b614b3488828901614774565b925050608086013567ffffffffffffffff811115614b5157600080fd5b614b5d88828901614774565b9150509295509295909350565b60008060008060808587031215614b8057600080fd5b6000614b8e8782880161479e565b945050602085013567ffffffffffffffff811115614bab57600080fd5b614bb787828801614774565b9350506040614bc88782880161479e565b925050606085013567ffffffffffffffff811115614be557600080fd5b614bf187828801614774565b91505092959194509250565b6000614c098383614c41565b60208301905092915050565b6000614c218383614d9f565b905092915050565b6000614c358383615267565b60208301905092915050565b614c4a816158cb565b82525050565b614c59816158cb565b82525050565b6000614c6a8261578e565b614c7481856157e1565b9350614c7f83615749565b8060005b83811015614cb0578151614c978882614bfd565b9750614ca2836157ba565b925050600181019050614c83565b5085935050505092915050565b6000614cc882615799565b614cd281856157f2565b935083602082028501614ce485615759565b8060005b85811015614d205784840389528151614d018582614c15565b9450614d0c836157c7565b925060208a01995050600181019050614ce8565b50829750879550505050505092915050565b6000614d3d826157a4565b614d478185615803565b9350614d5283615769565b8060005b83811015614d83578151614d6a8882614c29565b9750614d75836157d4565b925050600181019050614d56565b5085935050505092915050565b614d99816158dd565b82525050565b6000614daa826157af565b614db48185615814565b9350614dc4818560208601615922565b614dcd81615a91565b840191505092915050565b6000614de3826157af565b614ded8185615825565b9350614dfd818560208601615922565b614e0681615a91565b840191505092915050565b6000614e1c826157af565b614e268185615836565b9350614e36818560208601615922565b80840191505092915050565b60008154614e4f8161597f565b614e598186615836565b94506001821660008114614e745760018114614e8557614eb8565b60ff19831686528186019350614eb8565b614e8e85615779565b60005b83811015614eb057815481890152600182019150602081019050614e91565b838801955050505b50505092915050565b6000614ece602083615825565b91507f416c726561647920766f74656420666f7220746869732063616e6469646174656000830152602082019050919050565b6000614f0e601b83615825565b91507f4572726f72203a2041646d696e20616c726561647920657869737400000000006000830152602082019050919050565b6000614f4e601883615825565b91507f456c656374696f6e2049442063616e6e6f7420656d70747900000000000000006000830152602082019050919050565b6000614f8e601a83615825565b91507f456c656374696f6e204e616d652063616e6e6f7420656d7074790000000000006000830152602082019050919050565b6000614fce601e83615825565b91507f43616e64696461746520616464726573732063616e6e6f7420656d70747900006000830152602082019050919050565b600061500e600583615836565b91507f456e6465640000000000000000000000000000000000000000000000000000006000830152600582019050919050565b600061504e601a83615825565b91507f456c656374696f6e20446174652063616e6e6f7420656d7074790000000000006000830152602082019050919050565b600061508e602183615825565b91507f456c656374696f6e204465736372697074696f6e2063616e6e6f7420656d707460008301527f79000000000000000000000000000000000000000000000000000000000000006020830152604082019050919050565b60006150f4601e83615825565b91507f526567697374657220446561646c696e652063616e6e6f7420656d70747900006000830152602082019050919050565b6000615134601a83615825565b91507f43616e646964617465206167652063616e6e6f7420656d7074790000000000006000830152602082019050919050565b6000615174601b83615825565b91507f43616e646964617465206e616d652063616e6e6f7420656d70747900000000006000830152602082019050919050565b60006151b4601a83615825565b91507f4572726f72203a205573657220616c72656164792065786973740000000000006000830152602082019050919050565b60006151f4601983615825565b91507f4e65772050617373776f72642063616e6e6f7420656d707479000000000000006000830152602082019050919050565b6000615234600783615836565b91507f53746172746564000000000000000000000000000000000000000000000000006000830152600782019050919050565b61527081615909565b82525050565b61527f81615909565b82525050565b61529661529182615909565b6159fa565b82525050565b60006152a88284614e11565b915081905092915050565b60006152bf8284614e42565b915081905092915050565b60006152d582615001565b9150819050919050565b60006152ea82615227565b9150819050919050565b60006153008284615285565b60208201915081905092915050565b60006020820190506153246000830184614c50565b92915050565b600060808201905061533f6000830187614c50565b81810360208301526153518186614dd8565b905081810360408301526153658185614dd8565b905081810360608301526153798184614dd8565b905095945050505050565b6000606082019050818103600083015261539e8186614c5f565b905081810360208301526153b28185614cbd565b905081810360408301526153c68184614cbd565b9050949350505050565b600060a08201905081810360008301526153ea8188614c5f565b905081810360208301526153fe8187614cbd565b905081810360408301526154128186614d32565b905081810360608301526154268185614cbd565b9050818103608083015261543a8184614d32565b90509695505050505050565b600060808201905081810360008301526154608187614d32565b905081810360208301526154748186614c5f565b905081810360408301526154888185614d32565b9050818103606083015261549c8184614cbd565b905095945050505050565b600060c08201905081810360008301526154c18189614d32565b905081810360208301526154d58188614cbd565b905081810360408301526154e98187614cbd565b905081810360608301526154fd8186614cbd565b905081810360808301526155118185614cbd565b905081810360a08301526155258184614cbd565b9050979650505050505050565b60006020820190506155476000830184614d90565b92915050565b6000602082019050818103600083015261556681614ec1565b9050919050565b6000602082019050818103600083015261558681614f01565b9050919050565b600060208201905081810360008301526155a681614f41565b9050919050565b600060208201905081810360008301526155c681614f81565b9050919050565b600060208201905081810360008301526155e681614fc1565b9050919050565b6000602082019050818103600083015261560681615041565b9050919050565b6000602082019050818103600083015261562681615081565b9050919050565b60006020820190508181036000830152615646816150e7565b9050919050565b6000602082019050818103600083015261566681615127565b9050919050565b6000602082019050818103600083015261568681615167565b9050919050565b600060208201905081810360008301526156a6816151a7565b9050919050565b600060208201905081810360008301526156c6816151e7565b9050919050565b60006020820190506156e26000830184615276565b92915050565b6000604051905081810181811067ffffffffffffffff8211171561570f5761570e615a62565b5b8060405250919050565b600067ffffffffffffffff82111561573457615733615a62565b5b601f19601f8301169050602081019050919050565b6000819050602082019050919050565b6000819050602082019050919050565b6000819050602082019050919050565b60008190508160005260206000209050919050565b600081519050919050565b600081519050919050565b600081519050919050565b600081519050919050565b6000602082019050919050565b6000602082019050919050565b6000602082019050919050565b600082825260208201905092915050565b600082825260208201905092915050565b600082825260208201905092915050565b600082825260208201905092915050565b600082825260208201905092915050565b600081905092915050565b600061584c82615909565b915061585783615909565b9250827fffffffffffffffffffffffffffffffffffffffffffffffffffffffffffffffff0382111561588c5761588b615a04565b5b828201905092915050565b60006158a282615909565b91506158ad83615909565b9250828210156158c0576158bf615a04565b5b828203905092915050565b60006158d6826158e9565b9050919050565b60008115159050919050565b600073ffffffffffffffffffffffffffffffffffffffff82169050919050565b6000819050919050565b82818337600083830152505050565b60005b83811015615940578082015181840152602081019050615925565b8381111561594f576000848401525b50505050565b600061596082615909565b9150600082141561597457615973615a04565b5b600182039050919050565b6000600282049050600182168061599757607f821691505b602082108114156159ab576159aa615a33565b5b50919050565b60006159bc82615909565b91507fffffffffffffffffffffffffffffffffffffffffffffffffffffffffffffffff8214156159ef576159ee615a04565b5b600182019050919050565b6000819050919050565b7f4e487b7100000000000000000000000000000000000000000000000000000000600052601160045260246000fd5b7f4e487b7100000000000000000000000000000000000000000000000000000000600052602260045260246000fd5b7f4e487b7100000000000000000000000000000000000000000000000000000000600052604160045260246000fd5b6000601f19601f8301169050919050565b615aab816158cb565b8114615ab657600080fd5b50565b615ac281615909565b8114615acd57600080fd5b5056fea264697066735822122046b7dd4343e3697149c47164d304ce48d2980322bfd3ae4c67017572374b3bca64736f6c63430008000033",
  "immutableReferences": {},
  "source": "// SPDX-License-Identifier: MIT\npragma solidity ^0.8.0;\n\ncontract VotingSystem {\n    address[] public userAddresses; // Track all user addresses\n    address[] public adminAddresses; // Track all user addresses\n    uint256[] public election; // Track all election\n    uint256[] public request; // Track all request\n    uint256 public codeOfElection = 1001; // code for election ID\n    uint256 public codeOfRequest = 2001; // code for request ID\n\n    struct registeredUser {\n        string userName;\n        string userEmail;\n        string userPassword;\n        bool registered;\n    }\n\n    struct registeredAdmin {\n        string adminName;\n        string adminEmail;\n        string adminPassword;\n        bool registered;\n    }\n\n    struct userRequest {\n        address userAddress;\n        string userName;\n        uint256 electionID;\n        string role;\n    }\n\n    struct registeredELection {\n        string electionName;\n        string deadline;\n        string electionDate;\n        string electionDesc;\n        string electionStatus;\n        address[] validatedVoter;\n        mapping(address => address) vote;\n        mapping(address => bool) isVoter;\n        address[] validatedCandidate;\n        mapping(address => string) candidateName;\n        mapping(address => uint256) candidateAge;\n        mapping(address => string) candidateDesc;\n        mapping(address => uint256) candidateVote;\n        mapping(address => bool) isCandidate;\n    }\n\n    mapping(address => registeredUser) user;\n    mapping(address => registeredAdmin) admin;\n    mapping(uint256 => userRequest) requests;\n    mapping(uint256 => registeredELection) elections;\n\n    //user modules\n    function userSignUp(\n        address _newUserAddress,\n        string memory _name,\n        string memory _email,\n        string memory _password\n    ) public returns (bool isSuccess) {\n        require(\n            user[_newUserAddress].registered == false,\n            \"Error : User already exist\"\n        );\n        bool condition = false;\n        user[_newUserAddress].userName = _name;\n        user[_newUserAddress].userEmail = _email;\n        user[_newUserAddress].userPassword = _password;\n        user[_newUserAddress].registered = true;\n        userAddresses.push(_newUserAddress);\n        condition = true;\n        return condition;\n    }\n\n    function resetUserPassword(string memory _newPassword)\n        public\n        returns (bool isSuccess)\n    {\n        bool condition = false;\n        require(bytes(_newPassword).length != 0, \"New Password cannot empty\");\n\n        user[msg.sender].userPassword = _newPassword;\n\n        condition = true;\n        return condition;\n    }\n\n    //admin modules\n    function adminSignUp(\n        address _newAdminAddress,\n        string memory _name,\n        string memory _email,\n        string memory _password\n    ) public returns (bool isSuccess) {\n        require(\n            admin[_newAdminAddress].registered == false,\n            \"Error : Admin already exist\"\n        );\n        bool condition = false;\n        admin[_newAdminAddress].adminName = _name;\n        admin[_newAdminAddress].adminEmail = _email;\n        admin[_newAdminAddress].adminPassword = _password;\n        admin[_newAdminAddress].registered = true;\n        adminAddresses.push(_newAdminAddress);\n        condition = true;\n        return condition;\n    }\n\n    function resetAdminPassword(string memory _newPassword)\n        public\n        returns (bool isSuccess)\n    {\n        bool condition = false;\n        require(bytes(_newPassword).length != 0, \"New Password cannot empty\");\n\n        admin[msg.sender].adminPassword = _newPassword;\n\n        condition = true;\n        return condition;\n    }\n\n    function validateVoter(\n        address _newVoterAddress,\n        uint256 _electionID,\n        uint256 _requestID\n    ) public returns (bool isSuccess) {\n        bool condition = false;\n\n        elections[_electionID].validatedVoter.push(_newVoterAddress);\n        elections[_electionID].isVoter[_newVoterAddress] = true;\n        removeRequest(_requestID);\n        condition = true;\n        return condition;\n    }\n\n    function validateCandidate(\n        address _newCandidateAddress,\n        uint256 _electionID,\n        uint256 _requestID\n    ) public returns (bool isSuccess) {\n        bool condition = false;\n\n        elections[_electionID].validatedCandidate.push(_newCandidateAddress);\n        elections[_electionID].candidateVote[_newCandidateAddress] = 0;\n        elections[_electionID].isCandidate[_newCandidateAddress] = true;\n        removeRequest(_requestID);\n        condition = true;\n        return condition;\n    }\n\n    function removeRequest(uint256 _requestID) public returns (bool isSuccess) {\n        bool condition = false;\n        uint256 indexToRemove = 0;\n\n        for (uint256 i = 0; i < request.length; i++) {\n            if (\n                keccak256(abi.encodePacked(request[i])) ==\n                keccak256(abi.encodePacked(_requestID))\n            ) {\n                indexToRemove = i;\n                condition = true;\n                break;\n            }\n        }\n\n        // If the product is found in the array\n        if (condition) {\n            for (uint256 i = indexToRemove; i < request.length - 1; i++) {\n                request[i] = request[i + 1];\n            }\n            request.pop();\n        }\n\n        return condition;\n    }\n\n    //election modules\n    function createElection(\n        string memory _electionName,\n        string memory _deadline,\n        string memory _electionDate,\n        string memory _electionDesc\n    ) public returns (bool isSuccess) {\n        bool condition = false;\n        require(bytes(_electionName).length > 0, \"Election Name cannot empty\");\n        require(bytes(_deadline).length > 0, \"Register Deadline cannot empty\");\n        require(bytes(_electionDate).length > 0, \"Election Date cannot empty\");\n        require(\n            bytes(_electionDesc).length != 0,\n            \"Election Description cannot empty\"\n        );\n        elections[codeOfElection].electionName = _electionName;\n        elections[codeOfElection].deadline = _deadline;\n        elections[codeOfElection].electionDate = _electionDate;\n        elections[codeOfElection].electionDesc = _electionDesc;\n        elections[codeOfElection].electionStatus = \"Waiting\";\n        election.push(codeOfElection);\n\n        codeOfElection++;\n        condition = true;\n        return condition;\n    }\n\n    function startElection(uint256 _electionID)\n        public\n        returns (bool isSuccess)\n    {\n        bool condition = false;\n\n        elections[_electionID].electionStatus = \"Started\";\n        condition = true;\n        return condition;\n    }\n\n    function endElection(uint256 _electionID) public returns (bool isSuccess) {\n        bool condition = false;\n        elections[_electionID].electionStatus = \"Ended\";\n        condition = true;\n        return condition;\n    }\n\n    function modifyElection(\n        uint256 _electionID,\n        string memory _electionName,\n        string memory _deadline,\n        string memory _electionDate,\n        string memory _electionDesc\n    ) public returns (bool isSuccess) {\n        bool condition = false;\n\n        require(_electionID > 0, \"Election ID cannot empty\");\n        require(bytes(_electionName).length > 0, \"Election Name cannot empty\");\n        require(bytes(_deadline).length > 0, \"Register Deadline cannot empty\");\n        require(bytes(_electionDate).length > 0, \"Election Date cannot empty\");\n        require(\n            bytes(_electionDesc).length != 0,\n            \"Election Description cannot empty\"\n        );\n\n        //update new data\n        elections[_electionID].electionName = _electionName;\n        elections[_electionID].deadline = _deadline;\n        elections[_electionID].electionDate = _electionDate;\n        elections[_electionID].electionDesc = _electionDesc;\n\n        condition = true;\n\n        return condition;\n    }\n\n    //voter modules\n    function voteCandidate(address _candidateAddress, uint256 _electionID)\n        public\n        returns (bool isSuccess)\n    {\n        bool condition = false;\n        require(\n            _candidateAddress != address(0),\n            \"Candidate address cannot empty\"\n        );\n        require(_electionID > 0, \"Election ID cannot empty\");\n\n        // Retrieve current vote\n        address currentVote = elections[_electionID].vote[msg.sender];\n\n        // If already voted for the same candidate\n        if (currentVote == _candidateAddress) {\n            revert(\"Already voted for this candidate\");\n        }\n        else if (elections[_electionID].vote[msg.sender] != address(0) ){ \n            // Decrement vote count for the previous candidate if exists\n            elections[_electionID].candidateVote[currentVote]--;\n            elections[_electionID].candidateVote[_candidateAddress]++;\n            elections[_electionID].vote[msg.sender] = _candidateAddress;\n            condition = true;\n        }\n        else {\n            // Increment vote count for the new candidate\n            elections[_electionID].candidateVote[_candidateAddress]++;\n            elections[_electionID].vote[msg.sender] = _candidateAddress;\n            condition = true;\n        }\n\n        return condition;\n    }\n\n    function voterRequest( uint256 _electionID)\n        public\n        returns (bool isSuccess)\n    {\n        bool condition = false;\n\n        require(_electionID > 0, \"Election ID cannot empty\");\n\n        request.push(codeOfRequest);\n        requests[codeOfRequest].userAddress = msg.sender;\n        requests[codeOfRequest].electionID = _electionID;\n        requests[codeOfRequest].role = \"Voter\";\n        codeOfRequest++;\n        condition = true;\n        return condition;\n    }\n\n    // candidate module\n    function editProfile(\n        uint256 _electionID,\n        string memory _name,\n        uint256 _age,\n        string memory _description\n    ) public returns (bool isSuccess) {\n        bool condition = false;\n        require(bytes(_name).length > 0, \"Candidate name cannot empty\");\n        require(_age > 0, \"Candidate age cannot empty\");\n        require(bytes(_description).length > 0, \"Candidate name cannot empty\");\n\n\n        elections[_electionID].candidateName[msg.sender] = _name;\n        elections[_electionID].candidateAge[msg.sender] = _age;\n        elections[_electionID].candidateDesc[msg.sender] = _description;\n\n        condition = true;\n        return condition;\n    }\n\n    function candidateRequest(uint256 _electionID)\n        public\n        returns (bool isSuccess)\n    {\n        bool condition = false;\n\n        require(_electionID > 0, \"Election ID cannot empty\");\n\n        request.push(codeOfRequest);\n        requests[codeOfRequest].userAddress = msg.sender;\n        requests[codeOfRequest].electionID = _electionID;\n        requests[codeOfRequest].role = \"Candidate\";\n        codeOfRequest++;\n        condition = true;\n        return condition;\n    }\n\n    // tool\n    function userChecker(address _address) public view returns (bool isTrue) {\n        return user[_address].registered;\n    }\n\n    function userPasswordChecker(address _address, string memory _password)\n        public\n        view\n        returns (bool isTrue)\n    {\n        if (\n            keccak256(abi.encodePacked(_password)) ==\n            keccak256(abi.encodePacked(user[_address].userPassword))\n        ) {\n            return true;\n        }\n\n        return false;\n    }\n\n    function userEmailChecker(address _address, string memory _email)\n        public\n        view\n        returns (bool isTrue)\n    {\n        if (\n            keccak256(abi.encodePacked(_email)) ==\n            keccak256(abi.encodePacked(user[_address].userEmail))\n        ) {\n            return true;\n        }\n\n        return false;\n    }\n\n    function adminChecker(address _address) public view returns (bool isTrue) {\n        return admin[_address].registered;\n    }\n\n    function adminPasswordChecker(address _address, string memory _password)\n        public\n        view\n        returns (bool isTrue)\n    {\n        if (\n            keccak256(abi.encodePacked(_password)) ==\n            keccak256(abi.encodePacked(admin[_address].adminPassword))\n        ) {\n            return true;\n        }\n\n        return false;\n    }\n\n    function adminEmailChecker(address _address, string memory _email)\n        public\n        view\n        returns (bool isTrue)\n    {\n        if (\n            keccak256(abi.encodePacked(_email)) ==\n            keccak256(abi.encodePacked(admin[_address].adminEmail))\n        ) {\n            return true;\n        }\n\n        return false;\n    }\n\n    function voterChecker(uint256 _electionID)\n        public\n        view\n        returns (bool isTrue)\n    {\n  \n        return elections[_electionID].isVoter[msg.sender];\n    }\n\n    function candidateChecker(uint256 _electionID)\n        public\n        view\n        returns (bool isTrue)\n    {\n        return elections[_electionID].isCandidate[msg.sender];\n    }\n\n    function electionStartChecker(uint256 _electionID)\n        public\n        view\n        returns (bool isTrue)\n    {\n        for (uint256 i = 0; i < election.length; i++)\n            if (\n                keccak256(abi.encodePacked(\"Started\")) ==\n                keccak256(\n                    abi.encodePacked(elections[_electionID].electionStatus)\n                )\n            ) {\n                return true;\n            }\n\n        return false;\n    }\n\n    function electionEndChecker(uint256 _electionID)\n        public\n        view\n        returns (bool isTrue)\n    {\n        for (uint256 i = 0; i < election.length; i++)\n            if (\n                keccak256(abi.encodePacked(\"Ended\")) ==\n                keccak256(\n                    abi.encodePacked(elections[_electionID].electionStatus)\n                )\n            ) {\n                return true;\n            }\n\n        return false;\n    }\n\n    // display function\n    function getAllUser()\n        public\n        view\n        returns (\n            address[] memory usersAddress,\n            string[] memory userNames,\n            string[] memory userEmails\n        )\n    {\n        uint256 userCount = userAddresses.length;\n        address[] memory userAddress = new address[](userCount);\n        string[] memory names = new string[](userCount);\n        string[] memory emails = new string[](userCount);\n\n        for (uint256 i = 0; i < userCount; i++) {\n            userAddress[i] = userAddresses[i];\n            names[i] = user[userAddresses[i]].userName;\n            emails[i] = user[userAddresses[i]].userEmail;\n        }\n\n        return (userAddress, names, emails);\n    }\n\n    function getUser()\n        public\n        view\n        returns (\n            address usersAddress,\n            string memory userName,\n            string memory userEmail,\n            string memory userPassword\n        )\n    {\n        return (\n            msg.sender,\n            user[msg.sender].userName,\n            user[msg.sender].userEmail,\n            user[msg.sender].userPassword\n        );\n    }\n\n    function getAllRequest()\n        public\n        view\n        returns (\n            uint256[] memory requestID,\n            address[] memory addresses,\n            uint256[] memory electionID,\n            string[] memory role\n        )\n    {\n        uint256 requestCount = request.length;\n        uint256[] memory requestIDs = new uint256[](requestCount);\n        address[] memory usersAddress = new address[](requestCount);\n        uint256[] memory electionIDs = new uint256[](requestCount);\n        string[] memory roles = new string[](requestCount);\n\n        for (uint256 i = 0; i < requestCount; i++) {\n            requestIDs[i] = request[i];\n            usersAddress[i] = requests[request[i]].userAddress;\n            electionIDs[i] = requests[request[i]].electionID;\n            roles[i] = requests[request[i]].role;\n        }\n\n        return (requestIDs, usersAddress, electionIDs, roles);\n    }\n\n    function getAllElection()\n        public\n        view\n        returns (\n            uint256[] memory ids,\n            string[] memory names,\n            string[] memory deadline,\n            string[] memory date,\n            string[] memory desc,\n            string[] memory status\n        )\n    {\n        uint256 electionCount = election.length;\n\n        uint256[] memory electionsIDs = new uint256[](electionCount);\n        string[] memory electionNames = new string[](electionCount);\n        string[] memory electionDeadlines = new string[](electionCount);\n        string[] memory electionDates = new string[](electionCount);\n        string[] memory electionDescs = new string[](electionCount);\n        string[] memory electionsStatus = new string[](electionCount);\n\n        for (uint256 i = 0; i < electionCount; i++) {\n            electionsIDs[i] = election[i];\n            electionNames[i] = elections[election[i]].electionName;\n            electionDeadlines[i] = elections[election[i]].deadline;\n            electionDates[i] = elections[election[i]].electionDate;\n            electionDescs[i] = elections[election[i]].electionDesc;\n            electionsStatus[i] = elections[election[i]].electionStatus;\n        }\n\n        return (\n            electionsIDs,\n            electionNames,\n            electionDeadlines,\n            electionDates,\n            electionDescs,\n            electionsStatus\n        );\n    }\n\n    function getAllCandidate(uint256 _electionID)\n        public\n        view\n        returns (\n            address[] memory candidateAddress,\n            string[] memory candidateName,\n            uint256[] memory candidateAge,\n            string[] memory candidateDesc,\n            uint256[] memory candidateVote\n        )\n    {\n        uint256 count = elections[_electionID].validatedCandidate.length;\n        uint256 _id = _electionID;\n        address[] memory candidates = elections[_electionID].validatedCandidate;\n        string[] memory canNames = new string[](count);\n        uint256[] memory canAges = new uint256[](count);\n        string[] memory canDescs = new string[](count);\n        uint256[] memory canVotes = new uint256[](count);\n\n        for (uint256 i = 0; i < count; i++) {\n    \n            canNames[i] = elections[_id].candidateName[candidates[i]];\n            canAges[i] = elections[_id].candidateAge[candidates[i]];\n            canDescs[i] = elections[_id].candidateDesc[candidates[i]];\n            canVotes[i] = elections[_id].candidateVote[candidates[i]];\n        }\n\n        return (candidates, canNames, canAges, canDescs, canVotes);\n    }\n}\n",
  "sourcePath": "C:\\Users\\kingy\\fyp\\contracts\\fyp.sol",
  "compiler": {
    "name": "solc",
    "version": "0.8.0+commit.c7dfd78e.Emscripten.clang"
  },
  "schemaVersion": "3.4.16",
  "updatedAt": "2024-12-10T09:00:17.391Z",
  "devdoc": {
    "kind": "dev",
    "methods": {},
    "version": 1
  },
  "userdoc": {
    "kind": "user",
    "methods": {},
    "version": 1
  }
}